:020000040800F2
:10000000002500209D0100083B1C0008EF1A000895
:10001000391C0008D5080008452000080000000031
:100020000000000000000000000000003F1C00086D
:1000300089090008000000003D1C0008411C000860
:10004000B7010008B7010008B7010008B7010008B0
:10005000B7010008B7010008B7010008B7010008A0
:10006000B7010008B7010008B7010008B701000890
:10007000D9080008B7010008B7010008B701000857
:10008000B7010008B7010008B7010008B701000870
:10009000B7010008B7010008B7010008B701000860
:1000A000B7010008B7010008B7010008B701000850
:1000B000B7010008B7010008B7010008B701000840
:1000C000B7010008B7010008B7010008B701000830
:1000D000B7010008B7010008B7010008392000087F
:1000E000B7010008B7010008B7010008B701000810
:1000F000B7010008B7010008B7010008B701000800
:10010000B7010008B7010008B7010008B7010008EF
:10011000B7010008B7010008B7010008B7010008DF
:10012000B7010008B7010008B7010008B7010008CF
:10013000B7010008B7010008B7010008B7010008BF
:10014000B7010008B7010008B7010008B7010008AF
:10015000B7010008B7010008B7010008B70100089F
:10016000B7010008B7010008B7010008B70100088F
:10017000B7010008B7010008B7010008000000003F
:10018000B7010008B7010008DFF80CD000F062FAF0
:1001900000480047FD290008002500200648804748
:1001A00006480047FEE7FEE7FEE7FEE7FEE7FEE75C
:1001B000FEE7FEE7FEE7FEE7C91C0008890100082C
:1001C0002DE9F05F0546002092469B46884606468C
:1001D000814640241BE0284641464746224600F01F
:1001E00071F853465A46C01A914110D31146184629
:1001F000224600F058F82D1A67EB01084F462246B8
:100200000120002100F04FF817EB00094E41201E9D
:10021000A4F10104DFDC484631462A464346BDE8E6
:10022000F09FD2B201E000F8012B491EFBD27047CB
:100230000022F6E710B513460A4604461946FFF7B2
:10024000F0FF204610BD421C10F8011B0029FBD115
:10025000801A704700F0004230F000400AD0C10D13
:1002600001F56071C0F3160042EA0151C20840076F
:100270001143704700200146704730B50B460146D8
:1002800000202022012409E021FA02F59D4205D335
:1002900003FA02F5491B04FA02F52844151EA2F1DF
:1002A0000102F1DC30BD202A04DB203A00FA02F121
:1002B000002070479140C2F1200320FA03F3194354
:1002C00090407047202A04DB203A21FA02F00021F6
:1002D000704721FA02F3D040C2F120029140084356
:1002E000194670472DE9FE4F804681EA0300C00F92
:1002F0000C46009021F0004123F00045B8EB0200CD
:10030000A94105D24046214690461C460B4602466E
:1003100023F00040104347D0270DC7F30A00C3F372
:100320000A510290401A019040286BDAC3F313007F
:1003300040F4801B0098924620B10023D2EB030AC0
:1003400063EB0B0B01985946C0F140025046FFF792
:10035000AAFF06460D4650465946019A00F08CF910
:1003600010EB08006141002487EA115284EAE77328
:100370001A4340D0009A62B3019A012A4FEA075209
:1003800015DC001B61EB02014FF0004202EA07524C
:10039000CDE90042001C41F5801132462B4600F0A9
:1003A0008CF903B0BDE8F08F40462146F9E7001B09
:1003B00061EB0201001C41F5801300185B4120181D
:1003C000A2F5001747EB030140EAD570B6196D415D
:1003D00011E06D084FEA360645EAC0754FEA07524C
:1003E000001B61EB0201001C41F5801149084FEA36
:1003F00030000019514132462B4603B0BDE8F04FA2
:1004000000F04CB90098012240000023D0EB02021A
:1004100063EBE073009821464FEAE074B8EB00000C
:1004200061EB0401E9E783F000435BE781F0004101
:1004300058E72DE9FE4F81EA030404F0004421F05F
:10044000004100944FF0000B23F0004350EA0104F8
:100450005ED052EA03045BD0C3F30A54C1F30A55D9
:100460002C44A4F2F3340194A0FB0254C1F3130111
:1004700041F48011C3F3130343F4801301FB0244DE
:1004800000FB034E840A970A44EA815447EA8357E3
:10049000A4FB076802958D0A05FB07854FEA932C9C
:1004A00004FB0C542705029D4FEA065847EA16370D
:1004B000B5EB08056EEB070C870E920E47EA811725
:1004C00042EA8312A7FB0201B6EB0B0164EB0004C6
:1004D0002B0D43EA0C335E1844EB1C50DA465146B0
:1004E000E7FB0201C5F313044FEA0B3343EA14534D
:1004F0004FEA0432019C43EA0603A4F10C0402947F
:10050000009CCDE900B400F0D8F803B0BDE8F08F4E
:1005100000200146F9E72DE9F04D81EA030404F0DB
:10052000004B21F0004514464FF0000A23F0004133
:1005300050EA050220D054EA01021DD0C5F30A5743
:100540000246C5F31303C1F31300C1F30A5640F486
:10055000801543F48013A7EB0608101BD64608F25B
:10056000FD3873EB050002D308F1010801E0921891
:100570005B41B8F1000F03DA00200146BDE8F08DC1
:1005800000204FF48011064684460EE0171B73EBE3
:10059000050705D3121B63EB050306434CEA010C68
:1005A00049084FEA300092185B4150EA0107EDD14B
:1005B00052EA030012D082EA040083EA05010843EC
:1005C00005D0101BAB4106D20122002306E0002219
:1005D0004FF0004302E06FF0010253101AEB0600E7
:1005E0004CEB085110EB0A0041EB0B01BDE8F04D5C
:1005F00000F054B8C1F30A52C1F3130140F2FF33C3
:1006000041F480119A4202DA00200146704740F21C
:1006100033439A42A2F2334202DC5242FFF752BE07
:10062000FFF741BE30B5041E71F1000404DB4FF04A
:100630000044404264EB0101141E73F1000405DB29
:100640001C464FF00043524263EB0403994208BF3B
:10065000904230BD064C074D06E0E06840F00103D3
:1006600094E8070098471034AC42F6D3FFF790FDAA
:100670009C330008BC330008202A06DBCB17203A45
:1006800041FA02F043EAE07306E041FA02F3D04097
:10069000C2F12002914008431946704710B5141E5C
:1006A00073F1000408DA401C41F1000192185B412B
:1006B0001A4301D120F0010010BD2DE9F04D924602
:1006C0009B4611B1B1FA81F202E0B0FA80F2203219
:1006D0009046FFF7E8FD04460F4640EA0A0041EA6B
:1006E0000B0153465A46084313D0114653EA010002
:1006F00019D0C8F140025046FFF7E4FD05460E460A
:10070000504659464246FFF7CEFD084305D001202A
:1007100004E020463946BDE8F08D0020054346EA56
:10072000E0762C4337430A986305E40AA0EB0800FF
:100730000022FD0A44EA47540A3002D5002001464F
:10074000E9E7010510196941DDE90845001969412A
:10075000BDE8F04DA2E770B58C1810F8015B15F0FC
:10076000070301D110F8013B2A1106D110F8012B23
:1007700003E010F8016B01F8016B5B1EF9D12B0748
:1007800005D40023521E0DD401F8013BFAE710F8FE
:10079000013BCB1A921C03E013F8015B01F8015BEB
:1007A000521EF9D5A142D8D3002070BD464910B5DC
:1007B0004A6822F440324A604A6843681A434A60F1
:1007C00001684A6822F480724A6001684A680369D5
:1007D00042EA03224A6001684A6822F040724A6095
:1007E00001684A6883681A434A6001688A6822F48B
:1007F00000628A6001688A68C3681A438A60816AF5
:100800006FF07062D14201688A6822F070628A607B
:1008100001688A680CD0836A1A438A6001688A6812
:1008200022F040528A6001688A68C36A1A4301E074
:1008300022F040528A6001688A6822F002028A60CF
:1008400001688A68037E42EA43028A6090F82010B9
:10085000002901684A680FD042F400624A600168CA
:100860004A6822F460424A6001684A68174C436A49
:1008700004EB43331A4301E022F400624A6001684A
:10088000CA6A22F47002CA620168CA6A838B104C79
:1008900004EB03531A43CA6201688A6822F40072A7
:1008A0008A6001688A6890F8303042EA43228A60A0
:1008B00001688A6822F480628A6001688A684069F7
:1008C00042EA8020886010BD0023014000E0FFFF65
:1008D0000000F0FFFEE70000014800F069B90000E9
:1008E0009C20002001681823CAB2103AB2FBF3F230
:1008F000054B6FF30901032A9B5CC36500D9091DF1
:1009000081650846704700007A33000810B501463B
:1009100000208B698A6A4FF0C07453B1B3F5005F51
:1009200015D072B1012A0CD0022A0AD0032A09D1AB
:1009300004E01AB1012A06D0022A03D1C96AC9010A
:1009400000D5012010BDC96AA142FAD010BD002A0D
:10095000F7D0012AF2D0022AF3D0032AF3D010BD37
:1009600030B50468256825F4802525600468636037
:100970008368402B036803D099600068C26030BD73
:100980009A600068C16030BD7047704778B5002438
:10099000009490F83C20012A19D0012280F83C20D4
:1009A0000A6807230568092A13D9EE680A3A02EB98
:1009B000420293409E43EE600B788A680A3B03EB49
:1009C00043039A400368DD682A43DA6010E002209E
:1009D00078BD2E6902EB420293409E432E610B7854
:1009E0008A6803EB43039A4003681D692A431A612E
:1009F0004A681F23072A13D205686E6B521E02EB4A
:100A0000820293409E436E630B790A885B1E92B20A
:100A100003EB83039A4003685D6B2A435A6327E024
:100A200005680D2A12D22E6BD21F02EB8202934070
:100A30009E432E630B790A88DB1F92B203EB83037C
:100A40009A4003681D6B2A431A6311E0EE6A0D3A5F
:100A500002EB820293409E43EE620B790A880D3BC3
:100A600092B203EB83039A400368DD6A2A43DA6299
:100A7000164B0568144A9D4206D10D68122D03D10C
:100A8000556845F48005556005689D4218D10B688E
:100A9000102B01D0112B13D1536843F40003536082
:100AA000096810290CD10A490A4A0968B1FBF2F118
:100AB00001EB8101490000E0491E00910029FBD1B2
:100AC00080F83C40002078BD002301400020014018
:100AD0003008002040420F0070B504004FF00005C0
:100AE00003D0206C002610B107E0012070BD204625
:100AF00000F01CF8666484F83C60206CC00610D4DA
:100B0000206C20F4885040F0020020642046FFF75B
:100B10004DFE6664206C20F0020040F0010020646D
:100B200000E0012584F83C60284670BD10B586B011
:100B3000044614216846FFF77BFB11492068884270
:100B40001CD110480021026842F4807202600068E3
:100B500000F4807005900B481438026842F00102DE
:100B60000260006800F00100059001200090032061
:100B7000CDE901016946044800F08CF906B010BDCA
:100B800000200140443802400000024090F8351037
:100B9000022903D08021416501207047052180F89A
:100BA00035100068016821F00101016000207047E4
:100BB0002DE9F84304464FF00009CDF80090634852
:100BC0004FF41651A56D0068B0FBF1F72E6894F84C
:100BD0005C10082000FA01F131420FD021680A6848
:100BE00052070BD50A6822F004020A6094F85C10E0
:100BF0008840A860606D40F00100606594F85C106A
:100C00004FF0010808FA01F0304208D02168496924
:100C1000090604D5A860606D40F00200606594F894
:100C20005C1004208840304208D021680968890798
:100C300004D5A860606D40F00400606594F85C1015
:100C400010208840304218D021680968090714D55F
:100C5000A86020680168490304D50068000308D52E
:100C6000A16C07E00168C90503D4016821F00801FF
:100C70000160216C09B12046884794F85C1020205F
:100C80008840304231D021680968C9062DD5A86056
:100C900094F8350005282068016806D0490347D537
:100CA000006800031DD4616C1CE021F01601016096
:100CB0002068416921F080014161206C08B9A06C75
:100CC00020B12068016821F00801016094F85C10EF
:100CD0003F208840A86084F8349084F83580216DE6
:100CE0001FE0E16B09B120468847606D00282BD0DA
:100CF000606DC00714D0052084F8350020680168B5
:100D000021F0010101600098401C0090B84203D816
:100D100020680068C007F6D184F8349084F83580E4
:100D2000E16C002910D001B02046BDE8F04308472F
:100D30000168C905D5D4016821F01001016084F86B
:100D4000349084F83580CCE7BDE8F8833008002083
:100D50002DE9F041044600F085F906465CB1002516
:100D600084F83450022084F835002068016821F0AE
:100D7000010101600DE00120BDE8F08100F072F991
:100D8000801B052805D920206065032084F83500E4
:100D9000F2E720680068C007F0D122681168204897
:100DA0000140D4E901031843D4E90336334318431F
:100DB00063691843A3691843E3691843236A184316
:100DC0000843616A042903D1D4E90B13194308438A
:100DD000106020684069666A20F0070130460E43C3
:100DE000012704280CD1A06A0643E06A40B12046DE
:100DF000FFF78CFD20B14020606584F83570BAE7BC
:100E0000206846612046FFF76DFD94F85C203F2185
:100E100091408160656584F835700020ACE7000082
:100E20003F8010F02DE9F0410446866D90F83400C3
:100E3000002501280DD0012084F8340094F8357085
:100E40000020012F07D084F8340002252846BDE891
:100E5000F0810220FBE7022784F8357060652046A8
:100E6000FFF77EFD94F85C103F208840B06020685A
:100E7000016841F016010160206C20B12068016812
:100E800041F0080101602068016841F00101016042
:100E9000DCE700002DE9F84F00224FF001080325A0
:100EA0004FF00F0E0B6808FA02F42340A3426ED1F4
:100EB0004E68012E05D0022E03D0112E01D0122E25
:100EC00012D186684FEA420C05FA0CF7BE43CF6890
:100ED00007FA0CF7374387604668A6430C79C4F3DA
:100EE0000014944034434460C668570005FA07FC78
:100EF0008C6826EA0C06BC403443C4604C68022C63
:100F000001D0122C13D1D40800EB8404A346D4F8EA
:100F1000209054074FEAD46A0EFA0AF629EA060925
:100F20000E6906FA0AF646EA0906CBF8206006685A
:100F30000C7926EA0C0604F00304BC403443046038
:100F40004C68E40065D5364C266846F48046266039
:100F5000246822F0030604F480440094314C3444A5
:100F6000A446D4F808489607370F0EFA07F6B4439C
:100F70002D4EB04201D1002624E02C4EB04201D1CA
:100F800001261FE02A4EB04202D102261AE040E0BC
:100F9000284EB04201D1032614E0274EB04201D1C1
:100FA00004260FE0254EB04201D105260AE0244E6A
:100FB000B04201D1062605E0224EB04201D10726FB
:100FC00000E00826BE402643CCF808681E4E346870
:100FD0004F689C43FF0300D51C4334601A4C241D0A
:100FE00026684F689E43BF0300D51E432660164EF9
:100FF000083634684F689C43FF0200D51C433460B8
:10100000114E0C3634684F689C43BF0200D51C4318
:101010003460521C102AFFF445AFBDE8F88F000081
:101020004438024000300140000002400004024009
:1010300000080240000C0240001002400014024070
:1010400000180240001C0240003C0140426931EAA5
:10105000020200D10904816170470AB181617047C1
:101060000904FBE70148806870470000240800205D
:10107000024881680278114481607047240800208A
:101080000B4810B5016841F400710160016841F43A
:1010900080610160016841F480710160032000F00B
:1010A0006FF8002000F006F800F024F8002010BDD2
:1010B000003C024070B50D4D04464FF47A7128781B
:1010C000B1FBF0F00A490968B1FBF0F000F004FB55
:1010D00048B9102C07D200222146501E00F030F8EB
:1010E00000206C6070BD012070BD0000240800204D
:1010F000300800200A4808B5016841F480410160C9
:10110000006800F4804000900548001F016841F02D
:1011100080510160006800F08050009008BD000020
:1011200044380240002809DB00F01F0201219140F1
:101130004009800000F1E020C0F800117047000075
:10114000F0B40E4B1B680C46C3F30223C3F1070532
:10115000042D00D90425191D072901D2002300E020
:10116000DB1E012606FA05F1491E214099409E40EA
:10117000761E16403143F0BC00F07ABF0CED00E063
:10118000064900F0070208684FF6FF03184040EADE
:101190000220034A10430860704700000CED00E095
:1011A0000000FA052DE9F0470E46050065D0DFF88E
:1011B0001481D8F80000F7B200F00F00B04207D257
:1011C00088F80070D8F8000000F00F00B04254D149
:1011D00028683D4C810712D5400703D5206840F4AC
:1011E000E05020602878000703D5206840F4604074
:1011F00020602068A96820F0F0000843206028786B
:10120000C0072DD0304968680839012812D002285B
:1012100013D0032811D00968890700292DDA216825
:1012200021F0030101432160FFF71CFF814641F2D9
:10123000883A0EE009688903EFE709688901ECE75D
:10124000FFF710FFA0EB0901514502D90320BDE8CB
:10125000F0872068696800F00C00B0EB810FEFD1D7
:10126000D8F80010404601F00F01B14207D90770CD
:10127000006800F00F00B04201D00120E7E72878B5
:10128000400705D52068E96820F4E0500843206055
:101290002878000706D52068296920F4604040EAD4
:1012A000C100206000F038F82168084AC1F303113A
:1012B000515CC8400649086006480068FFF7FAFE1E
:1012C0000020C4E7003C0240083802408233000896
:1012D00030080020280800200448054900680968F3
:1012E000044AC1F38221515CC84070473008002095
:1012F000083802409233000804480549006809682C
:10130000044AC1F34231515CC840704730080020A4
:101310000838024092330008154810B5006810F0F4
:101320000C02144813D01449042A0FD0082A0ED1F5
:101330000F4C241F2268236802F03F025B0207D58E
:101340002068C0F38810A0FB010106E0084610BD2C
:101350002168C1F38811A1FB00010023FEF730FFD3
:101360002168C1F30141491C4900B0FBF1F010BDF7
:10137000083802400024F40040787D012DE9F84F40
:1013800004006ED02078DFF83C93C007A9F1040573
:101390004AD009F104000168C1F38101012908D094
:1013A0000068C0F3810002280AD1D9F80000400289
:1013B00006D52868800337D560680028E1D033E07F
:1013C0006068B0F5803F10D0B0F5A02F286810D02D
:1013D00020F480302860286820F48020286060682D
:1013E000A8B1FFF73FFE06460DE0286840F48030C4
:1013F000F4E740F480202860F7E700BFFFF732FEF3
:10140000801B642873D828688003F7D50CE0FFF7A9
:1014100029FE064605E000BFFFF724FE801B642876
:10142000F0D828688003F7D42078DFF89C82800702
:101430004FF0000A3ED5A348001D016811F00C0FC3
:1014400008D00068C0F3810002280BD1D9F8000051
:10145000400207D42868800716D5E068012800D12B
:1014600012E02BE1E068B8B10120C8F80000FFF7F6
:10147000F9FD064605E000BFFFF7F4FD801B0228DA
:10148000C0D828688007F7D52868216920F0F800BF
:1014900040EAC10028600DE0C8F800A0FFF7E2FDB7
:1014A000064604E0FFF7DEFD801B02281FD82868EF
:1014B0008007F7D42078000722D5824E83486169DF
:1014C000703671B101210160FFF7CCFD074604E0E1
:1014D000FFF7C8FDC01B022809D830688007F7D580
:1014E0000EE0C0F800A0FFF7BDFD074605E082E072
:1014F000FFF7B8FDC01B02287DD830688007F7D4FD
:101500002078400768D5DFF8BCB100270BF13C0B11
:10151000DBF80000C0000BD4DBF8001041F0805174
:10152000CBF80010DBF80000012700F0805000909D
:10153000674E3068C00510D4306840F48070306069
:10154000FFF790FD009005E0FFF78CFD0099401A31
:10155000022850D83068C005F6D55A4EA0686C36BF
:1015600001280FD00528306810D020F0010030602D
:10157000306820F004003060A068B8B1FFF772FD59
:1015800000900FE0306840F00100F4E740F0040004
:101590003060F7E7FFF766FD0099411A41F28830A5
:1015A000814266D830688007F4D50EE0FFF75AFD17
:1015B000009007E0FFF756FD0099411A41F288308C
:1015C000814256D830688007F4D42FB1DBF8001080
:1015D00021F08051CBF80010A069C8B33949091D2A
:1015E0000968C1F3810102294AD00228504607D078
:1015F000C8F8600000E03CE0FFF734FD04463BE043
:101600004746C8F86000FFF72DFD064605E000BF1D
:10161000FFF728FD801B02282BD828688001F7D40B
:10162000D4E907010843A16A2A4A490802EB0141AB
:10163000626A41EA8211084394F82C1040EA016181
:10164000C9F8001001203866FFF70CFD044606E0DB
:1016500036E000BFFFF706FD001B022809D8286806
:101660008001F7D52CE000BFFFF7FCFC001B02282F
:1016700002D90320BDE8F88F28688001F4D41FE068
:101680000128F7D0D9F80000E26900F48001914206
:1016900014D1226A00F03F0191420FD147F6C07188
:1016A000626A0140914209D1A26A00F4403191423C
:1016B00004D1E16A00F07060884201D00120D9E7CE
:1016C0000020D7E70438024000004742800E47421E
:1016D000007000400000FFFF10B5401EB0F1807F99
:1016E00001D3012010BD4FF0E02460610F2160178D
:1016F00000F0BEFC0020A06107202061002010BD8A
:101700007047000070B5026804461068D1685369DC
:1017100010F00F0F52D003F0010501F490762E4324
:101720005FD0C20705D0CA0503D5E26B42F00102C3
:10173000E263420705D5DA0703D0E26B42F002020A
:10174000E263820705D5DA0703D0E26B42F00402B8
:10175000E263020707D501F020022A4303D0E26BBF
:1017600042F00802E263E26B002A33D0800604D51F
:10177000880602D5204600F01CFB20684069E16B1A
:10178000C0F38010090700D428B3204600F0FAFA0D
:101790002068416949061AD5416921F0400141613B
:1017A000606BA0B11B490165606BFFF7EFF9002882
:1017B00010D0606B016DBDE870400847830610D5FE
:1017C0008B060ED52046BDE8704000F0F2BA2046E8
:1017D000FFF796FF70BD2046FFF792FF0020E06301
:1017E00070BD030606D50B0604D52046BDE8704043
:1017F00000F0BEBB4006F3D54806F1D5D1682046BF
:1018000021F04001D160202184F8391000F06EF9F8
:1018100070BD0000E51C000870B5040004D094F809
:101820003900002510B106E0012070BD84F8385061
:10183000204600F023F8242084F839002068C1688D
:1018400021F40051C160204600F0FEFA20680169D1
:1018500021F4904101612068416921F02A01416130
:101860002068C16841F40051C160E563202084F81C
:10187000390084F83A00002070BD000070B586B0D1
:10188000064614216846FEF7D3FC25493068884295
:1018900043D124480025016841F48021016000689B
:1018A00000F4802005901F481038016841F00201C3
:1018B00001600068694600F0020005904FF4406046
:1018C00000900220CDE90105032003900720049039
:1018D0001548FFF7DFFA164C144820604FF00060FF
:1018E000C4E901054014C4E9035080106561C4E9EE
:1018F00006504FF44030C4E908052046FFF728FAA7
:1019000008B1FFF742F87463002211462720A6634E
:10191000FFF716FC2720FFF705FC06B070BD00009E
:101920000048004040380240000402402860024065
:101930009C200020F8B5044690F83A0020283CD1BD
:10194000C1B3BAB394F83800012836D0012084F826
:101950003800A162A2850025E563222084F83A00C0
:10196000636B1748D863636B16481864636B16483B
:10197000D864606B134605650846666B21680246AD
:101980003046091DFFF74EFA206801684168009152
:1019900084F83850C16841F48071C16020684169A1
:1019A00041F0010141612068416941F0400141611C
:1019B0000020F8BDFFE70120FBE70220F9E7000067
:1019C0003F1D00087B1D0008F51C000870B5164D72
:1019D000164C0020215C422923D0401C3228F9DB20
:1019E00028682044C07800F0EBFF064628682044B1
:1019F000807800F0E5FF00EB800006EB4001083145
:101A000000206960094A2B680546323AC618A65D6F
:101A10001654884200DB155400F101003228F5DB32
:101A200070BD2860DDE7000004040020D21F002004
:101A300070472DE9F843044690F839001F461646D2
:101A40000D46202850D1B5B1AEB194F83800012828
:101A50004AD0012084F838004FF00008C4F83C80D8
:101A6000212084F83900FFF7FDFAA6848146E68438
:101A700084F8388026E00120BDE8F883E08C401E21
:101A8000E084A0684B46B0F5805F4FF000024FF055
:101A900080012046009703D000F09BFAE8B90DE0E2
:101AA00000F097FAC8B928882168C0F30800486098
:101AB000206908B16D1C05E0AD1C03E0216815F834
:101AC000010B4860E08C0028D8D14B460022402111
:101AD0002046009700F07DFA08B10320CCE72020D3
:101AE00084F839000020C7E70220C5E77047FEE709
:101AF0007FB5002415480094019402941249039480
:101B0000016001254FF480310561C0E901140576BB
:101B100080F820400E49C0E90A14C561C46080F80D
:101B200030404561FEF7D8FF08B1FEF72EFFCDE942
:101B30000045694605480294FEF728FF002801D0B9
:101B4000FEF723FF7FBD000000200140142000208D
:101B50000100000F094808B5016841F40011016057
:101B60000068002200F40010009011460C20FFF7DE
:101B7000E7FABDE808400C20FFF7D4BA303802403D
:101B800070B586B014216846FEF752FB1A4800244F
:101B9000016841F080010160016801F08001059158
:101BA000016841F001010160016801F00101059146
:101BB000016841F002010160016801F00201059134
:101BC000016841F00801016000680C4E00F0080057
:101BD0004FF470450590002229463046FFF73DFA44
:101BE00001200095CDE90104694630460394FFF7D2
:101BF00051F906B070BD000030380240000C0240C0
:101C00000C4810B50A4901604FF4E13141600021F0
:101C100081600C22C160C0E904128161C161FFF7DB
:101C2000FBFD002803D0BDE81040FEF7AEBE10BD9E
:101C3000004800405C200020FEE770477047704776
:101C4000FFF716BA30B593B030216846FEF7F0FAC8
:101C500014210CA8FEF7ECFA19480025016841F0A0
:101C600080510160006800F08050119015480168B3
:101C700041F4804101600068022400F4804011902A
:101C80000120039010200490009406940820CDE9D0
:101C90000750A820CDE9090404200B906846FFF7FF
:101CA0006DFB0CA90F2081E831004FF4A0500F907C
:101CB000E002109005210CA8FFF774FA13B030BDB4
:101CC00040380240007000400548016841F470014E
:101CD000016003494FF000608039086070470000E0
:101CE00088ED00E010B5806B0021C185C184FFF74D
:101CF00007FD10BD70B5846B2068406994F83910F9
:101D0000C0F3C0100025212904D118B1E584204674
:101D100000F046F82068406994F83A10C0F380104B
:101D2000222904D118B1E585204600F02BF8E06B9C
:101D300040F01000E0632046FFF7E2FC70BD10B5F4
:101D40000146806B09680968C90513D40021C18563
:101D50000168CA6822F48072CA6001684A6922F088
:101D600001024A6101684A6922F040024A61202169
:101D700080F83A10FFF72AFE10BD10B5806BFFF710
:101D800057FE10BD0168CA6822F49072CA600168EB
:101D90004A6922F001024A61202180F83A10704716
:101DA0000168CA6822F0C002CA60202180F8391098
:101DB000704710B590F83A10222901D0022010BDCA
:101DC0008168B1F5805F11D00169002901681FD0D9
:101DD000496801F07F03816A4A1C82620B70C18DE1
:101DE000491E0904090CC18518D02BE00269816ADB
:101DF000002A0268526805D0D2B20A80816A491C62
:101E00008162ECE7C2F308020A80816A891CF7E765
:101E10004A68816A4B1C83620A70E0E70168CA68FD
:101E200022F02002CA600168CA6822F48072CA6087
:101E300001684A6922F001024A61202180F83A10C3
:101E4000FFF7C4FD002010BD2DE9F04104460068F5
:101E50000169E26821F44051114301612169A068E0
:101E6000E26908436169114308432168CA6849F27D
:101E70000C639A430243CA6020684169A26921F455
:101E8000407111434161E069192764253226B0F59C
:101E9000004F354A354920684FF0000806D0884287
:101EA00001D0904236D1FFF727FA35E0884201D0C1
:101EB000904202D1FFF720FA01E0FFF70DFA6168C6
:101EC0004A18A0FB070148EB0803FEF779F9014621
:101ED000B0FBF5F00201B1FBF5F06FF018035843C9
:101EE00001EB800006EBC000B0FBF5F000F0F8005D
:101EF00002EB4002B1FBF5F0584301EB800006EB2A
:101F0000C000B0FBF5F000F00700216810448860C5
:101F1000BDE8F081FFF7E0F961688B0F8A00A0FB54
:101F20000701FEF74DF90146B0FBF5F06FF018021E
:101F3000504301EB800006EB0010B0FBF5F000F021
:101F4000F002B1FBF5F002EB0012B1FBF5F06FF01F
:101F50001803584301EB800006EB0010B0FBF5F0CE
:101F600000F00F00D1E70000001401400010014014
:101F700090F83910212901D0022070478168B1F50D
:101F8000805F016A0BD04A1C0262026809785160C6
:101F9000C18C491E0904090CC1840ED017E00988C0
:101FA0000268C1F30801516001690029016A02D089
:101FB000491C0162ECE7891CFBE70168CA6822F052
:101FC0008002CA600068C16841F04001C160002021
:101FD00070472DE9F041984617460E460446069D87
:101FE0001DE0681C1BD02DB1FFF73CF8A0EB0800EA
:101FF000A84214D92068C16821F4D071C16020685A
:10200000416921F001014161202084F8390084F800
:102010003A00002084F838000320BDE8F0812068F1
:10202000006836EA000004D00020B842D9D0002071
:10203000F3E70120F9E700000148FFF763BB000068
:102040005C200020FEE700000FB4084B10B504A987
:1020500002AA039800F0EEF8044602A9002000F05E
:1020600080FC204610BC5DF814FB000063290008CA
:102070000907090E002804DB00F1E02080F80014B5
:10208000704700F00F0000F1E02080F8141D704749
:1020900002E008C8121F08C1002AFAD17047704731
:1020A000002001E001C1121F002AFBD1704700008F
:1020B0002DE9FF5F82B00021DDE90430020DDDF87B
:1020C00040B0034318D044F61050A2F2FF3242430E
:1020D0001514119801281FD0A5EB0B00401C5FEAD6
:1020E000000A4FF000064E4FDFF83891B0465046D8
:1020F00015D5CAF1000413E0119801244AA3012860
:1021000001D16FEA0B010298119AC0E90031C0E9D0
:10211000024206B0BDE8F09FCBF10000DFE70446C5
:102120000021404A491842EB0450CDE9001012E06A
:10213000E00707D032463B4640464946FEF779F96C
:102140008046894632463B4610461946FEF771F9ED
:1021500006460F466410002CEAD1DDE90401DDE9F2
:102160000023BAF1000F06DAFEF763F942464B4648
:10217000FEF75FF905E0FEF7CEF942464B46FEF763
:10218000CAF904460E460022284BFEF74BFA03D844
:102190004FF0FF30014607E00022254B2046314634
:1021A000FEF7A0F8FEF726FA102409E0002C0ADB5F
:1021B0000A220023FEF704F8039B30321A55641EEE
:1021C00050EA0102F2D1641C039AC4F111031444D1
:1021D000119A012A03D0012208430DD10AE00843D5
:1021E00004D000204FF0110B119072E7A3EB0B0508
:1021F0006D1E0DE05B4504DD4FF0000205F10105A9
:1022000004E003DA4FF00002A5F10105002AECD04A
:1022100002981199C0E90231C0E9004579E7000050
:10222000000014400000F03F300000000000F043C8
:102230000000E03F2DE9FF4F95B09B4689460646DA
:1022400000250FE2252877D100242746F84A0121EE
:10225000059400E0044316F8013F203B01FA03F027
:102260001042F7D130782A2811D06FF02F03307840
:10227000A0F13002092A16D8059A44F0020402EBB4
:10228000820203EB42021044761C0590EFE759F8F6
:10229000042B0592002A03DA504244F400540590BE
:1022A00044F00204761C30782E2816D116F8010F5F
:1022B00044F004042A280DD06FF02F023078A0F1EA
:1022C0003003092B09D807EB870302EB4303C71838
:1022D000761CF3E759F8047B761C30786C280FD015
:1022E00006DC4C2817D068280DD06A2814D104E0E9
:1022F000742810D07A280FD10DE044F400140AE0BD
:1023000044F4801401E044F440147278824202D113
:1023100004F58014761C761C307866280BD013DC0C
:10232000582877D009DC002875D04528F6D04628F3
:10233000F4D047281AD19DE118E0632835D06428ED
:1023400079D0652812D195E1702873D008DC672810
:10235000F1D069286FD06E280DD06F2806D1B5E076
:1023600073282CD0752875D0782874D05A461799C0
:1023700090476D1C75E1C4F30250022809D0032870
:102380000DD0D9F8001004280DD00D6009F1040912
:1023900067E1D9F80010EA17C1E90052F6E7D9F869
:1023A00000100D80F2E70D70F0E719F8041B8DF8AE
:1023B000001000208DF80100EA46012003E059F8E2
:1023C00004AB4FF0FF3061074FF0000102D40DE085
:1023D00008F101018846B9420FDA8045F8DB1AF8A6
:1023E00008100029F4D108E008F101018846814273
:1023F000FADB1AF808100029F6D105985B46A0EB25
:10240000080721463846179A00F094FA284400EB52
:10241000080507E04DE029E10DE01AF8010B5A46E6
:1024200017999047B8F10108F7D25B462146384624
:10243000179A13E142E00A220092C4F302524FF0CD
:10244000000A022A08D059F804CB032A4FEAEC719B
:102450000AD00DE029E02AE009F1070121F0070286
:10246000F2E802C1914609E00FFA8CFC4FEAEC71E8
:10247000042A03D14FFA8CFC4FEAEC71002907DAE9
:102480000A460021DCF1000C61EB02012D2202E082
:10249000220504D52B228DF80420012203E0E20757
:1024A00001D02022F7E7904659E00A2102E01022ED
:1024B0000DE010214FF0000A00910BE010224FF0C8
:1024C000000A44F004040827009203E008224FF0B9
:1024D000000A0092C4F30252022A05D059F804CB34
:1024E0000021032A08D009E009F1070121F00702C1
:1024F000F2E802C1914605E01FFA8CFC042A01D1E2
:102500000CF0FF0C4FF00008220728D5702806D0E9
:10251000009B83F0100353EA0A0305D00EE040222B
:102520008DF80420012208E05CEA010206D0302286
:102530008DF804208DF8050002229046009B83F060
:10254000080353EA0A030AD15CEA010201D16207D7
:1025500005D530228DF804204FF001087F1E582841
:1025600004D034A003900EA802900DE036A0F9E745
:1025700053466046009AFDF723FE84460398825C2A
:102580000298401E029002705CEA0100F0D10298AD
:1025900006A9081A00F1200A600702D524F4803445
:1025A00000E00127574502DDA7EB0A0000E000200C
:1025B00000EB0A01009005984144401A0590E003A1
:1025C00006D45B462146179A059800F0B3F90544F6
:1025D000002706E001A85A46C05D179990476D1C78
:1025E0007F1C4745F6DBE0030CD55B462146179A76
:1025F000059800F09FF9054404E030205A461799E9
:1026000090476D1C0099481E00900029F5DC08E0F9
:10261000029802995A460078491C029117999047EE
:102620006D1CBAF10001AAF1010AF1DC65E10000BC
:102630000928010030313233343536373839616298
:10264000636465660000000030313233343536375C
:1026500038394142434445460000000000F058F933
:102660000544761C307800287FF4ECAD19B028467C
:10267000BDE8F08F620700D4062709F1070222F0B7
:10268000070CFCE80223E14603F000485FEA080C6F
:1026900002D00FF2702C0DE05FEA045C02D50FF25D
:1026A000682C07E05FEAC47C02D00FF2602C01E0E6
:1026B000AFF2700C4FF0FF3823F00043CDF850C05C
:1026C00065280CD006DC452809D046281DD04728AF
:1026D0003DD13DE0662818D067287ED138E0002142
:1026E000112F01DB112000E0781CCDE9000106A9C3
:1026F0000EA8FFF7DDFCDDE90F010E9A0391002122
:10270000009207F1010A04914DE04FF0004000975C
:10271000CDE9011006A90EA8FFF7CAFCDDE90F02FA
:1027200003920E9B11990022DDF80CA000930492F5
:1027300011B9791C00EB010AB7EB0A0004D4C0F10F
:10274000FF3007F1010A0490AAEB0700019044E072
:10275000012F00DA01270021112F01DD112000E0F7
:102760003846CDE9000106A90EA8FFF7A1FCDDE976
:102770000F010E9A0391002104910092BA4621079D
:102780000CD40399514500DA8A46BAF1010F05DDF0
:10279000009AAAF10101515C302908D0B84202DA4E
:1027A00010F1040F06DA0121CDE9011015E0AAF1BC
:1027B0000101E9E7002805DC049901440491AAEB32
:1027C000000102E0411C514500DD8A460499401A8F
:1027D000401C01904FF000400290200704D4019863
:1027E000504501DBCDF8048000208DF84F000298A1
:1027F0000DF14F07B0F1004F25D02B200E9002981D
:102800004FF0020800280CDA404202902D200E9072
:1028100007E00A210298FDF730FD3031029007F8F9
:10282000011DB8F10001A8F10108F2DC02980028AE
:10283000EFD1791E0E980870307800F0200040F03B
:10284000450007F8020D12A8C01B00F107081498F4
:10285000007800B1012000EB0A01019801EBE07162
:1028600005984144401A401E0590E00306D45B469B
:102870002146179A059800F05DF8054414980078F1
:1028800018B15A46179990476D1CE00324D55B4652
:102890002146179A059800F04DF805441CE004986D
:1028A000002807DBDDE90301884203DD0098405C76
:1028B000179901E0179930205A469047049805F17E
:1028C0000105401C04900198401E019004D12E2067
:1028D0005A46179990476D1CBAF10001AAF1010AF6
:1028E000DDDC05E017F8010B5A46179990476D1C7F
:1028F000B8F10001A8F10108F4DC5B462146179A03
:102900000598ABE62D0000002B0000002000000021
:102910002DE9F041044600251E461746880404D4DC
:1029200005E039462020B0476D1C641EF9D52846C5
:10293000BDE8F0812DE9F041044600251E46904691
:10294000C80301D5302700E02027880404D505E01E
:1029500041463846B0476D1C641EF9D52846BDE88F
:10296000F0810A68531C0B60107070479FED130ACA
:1029700030380A2808D2DFE800F00705080B0E11EE
:1029800014171A1DB7EE000A7047B0EE000A704720
:10299000B0EE080A7047B1EE000A7047B1EE040AC3
:1029A0007047B1EE080A7047B1EE0C0A7047B2EEFC
:1029B000000A7047B2EE020A7047000000000000F3
:1029C0000146002030390A2907D2DFE801F0060568
:1029D00007090B0D0F1113150120704702207047D6
:1029E0000320704704207047052070470620704779
:1029F0000720704708207047092070472DED028B93
:102A0000FEF73EFBFFF71EF9FFF7BAF8FFF7A2F853
:102A1000FFF7F6F8FFF76CF80E2240494048FEF742
:102A200089FF3E4E3D4D323E3E4CB7EE008A212797
:102A30002878412806D13B4A02213832384800F034
:102A40000FF92F703078422837D194ED090A3649B2
:102A500030EE080A84ED090AD4ED0B0A10EE100AD4
:102A600070EE880A8842C4ED0B0AD4ED0A0A70EEB3
:102A7000880AC4ED0A0A07D19FED2C0A84ED0B0ADF
:102A800084ED0A0A84ED0C0A4FF400412848FEF751
:102A9000DDFA22490E31A1F1400000F04FF81F4845
:102AA0000E3000F03BFC84ED0D0A04F124011C48BB
:102AB00091EC040A00F09EF9377028784328B7D1CA
:102AC0001C49A068884219D184ED028AB0EE000A40
:102AD00084ED030AB0EE080A84ED040AB1EE000AA0
:102AE00084ED050AB1EE040A84ED060AB1EE080A87
:102AF00084ED070AB1EE0C0A84ED080A04F108011E
:102B0000074891EC070A00F0E3FA00224FF48041F5
:102B10000948FEF7A2FA2F708AE70000D21F0020B2
:102B20005C200020040400200060EA460000000051
:102B3000000C024000007A44000402402DE9F041FC
:102B40000F4606460021434D434B084678545854DF
:102B50006854491C1429F9DD3E4C183C2061608101
:102B6000B078FFF72DFF2061F078FFF729FF606153
:102B7000216901EB810100EB41000421421D20612C
:102B800009E000BF06EB010C1CF802CC03EB0108C6
:102B9000491C08F804CC9142F4DD0021421832446B
:102BA00012796A54491C0329F8DD0026984606E08C
:102BB00008EB060061898078761C0844608126480D
:102BC000FDF741FB801EB042F2D8608923A100F4DA
:102BD000704220481338FFF737FA60891FA100F4CC
:102BE00070621C481238FFF72FFAA07A1BA100F080
:102BF000F00218481138FFF727FAA07A17A100F061
:102C00000F0214481038FFF71FFA124829781338BA
:102C1000007888421CD10F486978123800788842C1
:102C200016D10C48A97811380078884210D109488B
:102C3000E9781038007888420AD10020414604E043
:102C40000A183B1892785A70401C22699042F7DBB0
:102C5000BDE8F0811800002034080020257800002D
:102C60002DE9F74FDFF87CA14FF0000B8846AAF85A
:102C70000AB05F46DFF8709192E007EBC70000EB07
:102C80000716412109F82610029800EB8600044639
:102C9000FDF7D9FA0A2810D209EB860530216970B0
:102CA0002046FDF7D0FA02464E4850A10C30FFF7FF
:102CB000CBF94C480C300078A8702046FDF7C3FAD9
:102CC0000A2810D32046FDF7BEFA0246454847A120
:102CD0000C30FFF7B9F9434909EB86000C310A784B
:102CE00042704978817000250BE009EB860028448A
:102CF000615DC170615DBAF80A206D1C1144AAF8CB
:102D00000A102046FDF79FFA401EA842EDD2BAF8FD
:102D10000A0037A100F470423248401CFFF794F9D2
:102D2000BAF80A0032A100F470622E48801CFFF746
:102D30008BF99AF80A002EA100F0F0022948C01C75
:102D4000FFF782F99AF80A0029A100F00F0225483E
:102D5000001DFFF779F92046FDF775FA214909EBC7
:102D60008605491C28440978C1702046FDF76BFA96
:102D70001C492844891C097801712046FDF763FA33
:102D800018492844C91C097841712046FDF75BFAAF
:102D900014492844091D7F1C09788171AAF80AB0DA
:102DA0004745FFF66AAF00264F4617E006EBC60020
:102DB00000EB0610002407EB800504E0295D009875
:102DC00000F0D4FA641C2846FDF73DFA401EA042EC
:102DD000F4D20A21009800F0C9FA761C4645E5DBDA
:102DE000BDE8FE8F00000020480800202564000098
:102DF000257800002DE9F14F2DED040B0020012175
:102E0000A54E884646F82010401C0428F9DBA34D47
:102E1000A349002085ED000AC5ED140A85ED281AA6
:102E2000C5ED3C1A0870491CF2EE042A0870491CD2
:102E30000870491CA1F1040B08709A49ABF80A000C
:102E400000EB800205EB021213680CE092ED003AF1
:102E500083EE222A82ED002A56F820305B1C46F8C9
:102E6000203012EE103A8B42F0DA401C0428E7DBE7
:102E700085ED000AC5ED140ADFF824A285ED281AB5
:102E8000C5ED3C1A00240AF11B0A00BF56F82400C5
:102E9000012813D104EB840005EB00100068FDF756
:102EA000D9F941EC100B04EBC40000EB04110AEB60
:102EB000410053EC102B7CA1FFF7C6F856F8240014
:102EC000022813D104EB840005EB00100068FDF725
:102ED000C1F941EC100B04EBC40000EB04110AEB48
:102EE000410053EC102B72A1FFF7AEF856F8240006
:102EF000032813D104EB840005EB00100068FDF7F4
:102F0000A9F941EC100B04EBC40000EB04110AEB2F
:102F1000410053EC102B68A1FFF796F856F82400F7
:102F2000B146042813D104EB840005EB00100068BF
:102F3000FDF790F941EC100B04EBC40000EB041119
:102F40000AEB410053EC102B5DA1FFF77DF8641CE8
:102F5000032C9BDDDFF870A1002707EBC70000EB17
:102F6000071142220AF811200AEB41053022AA700B
:102F70003622EA7050228AF8012056228AF833203D
:102F800049228AF8652052228AF89720444A00266E
:102F90001B3202EB410403E0A05DA919761C087105
:102FA0002046FDF750F9B042F6D2002607E0A819F6
:102FB000BBF80A200179761C1144ABF80A102046B0
:102FC000FDF741F9B042F2D2BBF80A005E4600F4C8
:102FD00070423EA13248FFF737F870893BA100F4F8
:102FE00070622F48401CFFF72FF8B07A37A100F02D
:102FF000F0022B48801CFFF727F8B07A33A100F0CD
:103000000F022748C01CFFF71FF82046FDF71BF9E9
:1030100041192348007808712046FDF714F9411939
:103020001F48401C007848712046FDF70CF94119F3
:103030001B48801C007888712046FDF704F941196F
:1030400017487F1CC01C0078C87100207081032FB6
:1030500083DD0026574606EBC60000EB0610002471
:1030600007EB400504E0295D049800F07FF9641C3B
:103070002846FDF7E8F8401EA042F4D2761C032E45
:10308000E9DB00204246494641F82020401C042844
:10309000FADB05B0BDE8F08F901F0020D01B0020A8
:1030A0000100002000002041303030252E31660024
:1030B0003030252E3166000030252E3166000000AC
:1030C000252E316600000000E8170020257800005A
:1030D0002DE9F14F2DED080B00200546884C89495C
:1030E000A4F6485684ED000AC4ED140A84ED281AAB
:1030F000C4ED3C1A84ED502AC4ED642A84ED783A7C
:103100000870491C0870491C0870491CA1F1040A88
:103110000870AAF80A0000BF05EB850004EB001058
:103120000068FDF797F841EC100B05EBC50000EBCC
:10313000051006EB400053EC102B73A1FEF784FF43
:103140006D1C062DE8DDDFF8C8910027B34607EBBC
:10315000C70101EB0716432009F816000BEB4600E8
:103160004D460446FDF76FF80A2812D205EB4608D3
:10317000302188F802102046FDF765F8421C6148AE
:1031800064A10B30FEF760FF5E480B30017888F8D1
:1031900003102046FDF757F80A2810D32046FDF704
:1031A00052F8421C57485BA10B30FEF74DFF5548C3
:1031B00005EB46010B3002788A704078C8705020C9
:1031C0006870552085F833004A2085F86500702026
:1031D00085F89700662085F8C900562085F8FB0021
:1031E000492085F82D014FF00008A94608E000BFEE
:1031F00009EB460014F80810404408F10108017179
:103200002046FDF720F8401E4045F1D2002509E098
:1032100009EB46002844BAF80A20C1786D1C114415
:10322000AAF80A102046FDF70EF8A842F0D2BAF824
:103230000A00554600F4704237A13248FEF704FFF9
:10324000688935A100F470622E48401CFEF7FCFE30
:10325000A87A31A100F0F0022A48801CFEF7F4FEA3
:10326000A87A2DA100F00F022648C01CFEF7ECFE44
:103270002046FCF7E8FF09EB460681192148007853
:1032800008712046FCF7DFFF81191E48401C0078BA
:1032900048712046FCF7D7FF81191A48801C007836
:1032A00088712046FCF7CFFF81191648C01C0078B2
:1032B000C8712046FCF7C7FF30440A210172002084
:1032C0007F1C6881062F7FF742AF00264F4606EB32
:1032D000C60000EB0610002507EB400404E0615D2A
:1032E000089800F043F86D1C2046FCF7ACFF401E28
:1032F000A842F4D2761C072EE9DB09B0BDE8F08FB6
:10330000601D002001000020252E33660000000013
:1033100000140020256400002578000000B5024656
:103320004078FFF723FBDFED0F0A907860EE200A6C
:10333000FFF71CFB9FED0C1AD07840EE010AFFF757
:1033400015FBB2EE041A107940EE010AFFF70EFBEE
:1033500070EE800A9079FFF709FBC0EE011A30EE9B
:10336000A10A00BD00007A440000C84213B5012341
:103370001A4601A9FEF75DFB1CBD000610160006EB
:103380001016000000000000000001020304060700
:10339000080900000000010203040000BC3300081B
:1033A00000000020340800005607000824340008FC
:1033B00034080020CC1C0000A0200008011C1A309A
:1033C00001032C2E3009943201FF01FF01FF012D72
:1033D00033803F1A400319041A80041AA0041AC04B
:1033E000041AE0040110001750C8424D6F64656C68
:1033F0003A2041726D20436F727465782D4D340010
:1034000015FF56657273696F6E3A2073746D3332AF
:10341000663736375A4901FF01FF017332018210C6
:043420001324F4007D
:040000050800018965
:00000001FF
